:020000040800F2
:10000000880C0020A9010008332F00083D2D0008AE
:10001000312F0008851400086D340008000000002E
:10002000000000000000000000000000CD310008CA
:100030008714000800000000F1300008CF310008EC
:10004000C3010008C3010008C3010008C301000880
:10005000C3010008C3010008C3010008C301000870
:10006000C3010008C3010008C3010008C301000860
:10007000C3010008C3010008C3010008C301000850
:10008000C3010008C3010008C3010008C301000840
:10009000C3010008C3010008C3010008C301000830
:1000A000C3010008C3010008C3010008C301000820
:1000B000C3010008C3010008C3010008C301000810
:1000C000C3010008C3010008C3010008C301000800
:1000D000C3010008C301000861340008C30100081F
:1000E000C3010008C3010008C301000800F002F8C2
:1000F00000F04AF80AA090E8000C82448344AAF178
:100100000107DA4501D100F03FF8AFF2090EBAE875
:100110000F0013F0010F18BFFB1A43F0010318473B
:100120001451000034510000103A24BF78C878C13F
:10013000FAD8520724BF30C830C144BF04680C60ED
:10014000704700000023002400250026103A28BF35
:1001500078C1FBD8520728BF30C148BF0B60704739
:10016000662903F02F84642900F052800020704734
:100170001FB500F0DFFB04000020002103F054FA5B
:10018000E0601FBD10B510BD00F0D4FC1146FFF7B4
:10019000EFFF03F097F900F0F2FC03B4FFF7F2FF72
:1001A00003BC00F035FD00000948804709480047BE
:1001B000FEE7FEE7FEE7FEE7FEE7FEE7FEE7FEE717
:1001C000FEE7FEE704480549054A064B7047000074
:1001D0004B320008ED00000888060020880C002043
:1001E00088080020880800200FB41CB5074B06AA19
:1001F0007B4469460090059800F083FB0020694627
:1002000000F092FB1CBC5DF814FB000035070000F9
:100210002DE9F0410646002410687529314616A5DF
:1002200010D0AFF30080002802DA404213A507E0A7
:1002300031688A0701D512A502E0490704D511A546
:10024000012401E0AFF3008000210A2206F1240717
:1002500009E0B0FBF2FCB0FBF2F302FB1C00303013
:1002600078541846491C0028F3D123462A463046C4
:10027000BDE8F04100F0D8B8000000002D000000FB
:100280002B000000200000002DE9F0474FF0000A8D
:1002900089460446C0F820A02046E1688847002827
:1002A00076D0252806D0D4E901219047206A401C49
:1002B0002062F1E7E168204600258847C4F81CA0C9
:1002C00006460027C4F818A02A2E09D0304603F0AD
:1002D000F2F838B304EB8708303EC8F8186019E02C
:1002E00059F8041B204604EB87029161E1688847B6
:1002F000012F064618D1E069002820DA25F02005F4
:100300001DE0D8F8180000EB800006EB4000303804
:10031000C8F818002046E1688847064603F0CBF885
:100320000028EED1012F0AD02E2E08D12046E168F8
:1003300088477F1C0646022F45F02005C4DBA069D4
:10034000002803DA404245F00105A061E80701D02A
:1003500025F01005B6B1A6F14100192802D82036C3
:1003600045F400654A463146204625604D46FFF774
:10037000F7FE58B1012806D0ED1D25F0070000F169
:10038000080989E704E005F1040985E730468AE7B2
:10039000206ABDE8F08710B5431C02E010F8011B8D
:1003A00071B18107FAD14FF0013202C88C1A8C4327
:1003B00014EAC211F9D0C01A0A0603D0C01E10BD3B
:1003C000C01A10BD0A0401D0801E10BD0902FCD065
:1003D000401E10BD4FF0000200B5134694469646ED
:1003E000203922BFA0E80C50A0E80C50B1F1200148
:1003F000BFF4F7AF090728BFA0E80C5048BF0CC0F6
:100400005DF804EB890028BF40F8042B08BF704753
:1004100048BF20F8022B11F0804F18BF00F8012BC5
:1004200070477047704770472DE9F0470D46994671
:100430009246044600F124080168880604D5E06964
:1004400021F01001216000E00120A84201DD471BDE
:1004500000E00027A1697A1902EB0900081AA061DF
:100460002078C00602D42046AFF30080002608E0C2
:10047000D4E901211AF806009047206A401C761C36
:1004800020624E45F4DB2078C0060AD52046AFF343
:10049000008006E0D4E9012130209047206A401C0A
:1004A0002062381EA7F10107F4DC07E0D4E901213E
:1004B00018F805009047206A401C2062281EA5F10C
:1004C0000105F3DC2046AFF300802078000602D55A
:1004D0000220BDE8F0870120FBE770472DE9FF4FC0
:1004E0000C461E464FF0FF378BB0D2E90001DDF815
:1004F00060800A908A46C1F30A5505B93D4600213D
:1005000008464FF00000BAF1000F00F4400005DA91
:1005100000EB80004FF4400101EA50004FEA90598F
:10052000B9F1010F00DDB9460A9850EA4A000ED031
:1005300044F61050A5F2FF3545432F14B8F1000FD3
:100540001ED07542291E1EDDC9F100021CE0B8F163
:10055000010F4FF0000001D0302103E0F24305E02D
:100560002154401CB042FBDB3046002200212154C4
:100570000B99C1F80880C1E900200FB0BDE8F08FE9
:10058000BD1B6D1CDEE74A4600DA694206A800F092
:100590005BFA06AB93E8070003AB83E8070050461D
:1005A0000A9900F03CFB8DE80700A0F500501F38C9
:1005B00000900398002D0ADD42F21F014A460844CC
:1005C000002303A90390684600F0A5FD09E0A0F50B
:1005D00000504A461F38002303A90390684600F0E4
:1005E000AFFD8DE807000004000C03D04FF0FF3092
:1005F000410800E01046B8F1000F03D0002200923D
:1006000015461EE0751E05D400F098F9303262558B
:100610006D1EF9D5B3460122084302D000227F1C8B
:1006200004E02078302801D100227F1E002A09979B
:1006300084D01DE0112D07DA00F080F930326255C8
:100640006D1C50EA0102F5D1084302D00098C8B1F0
:100650000EE00021681E05E0235C625C63542254B6
:10066000401E491C8142F7DBAB46A81B401E099087
:10067000002004F80B000B98099AC0F80880C0E924
:10068000002B7AE711264FF0000857E72DE9F04FCD
:1006900088460446D21D22F0070191B0D1E900013D
:1006A000CDE90A0102F0E3FE02460B98C00F01D02B
:1006B0002D2007E02068810701D52B2002E02021B2
:1006C00001EAC000032A099001D0072A05DB03468E
:1006D0004146204600F078F90BE12078800601D5EC
:1006E000E06900E00620B8F1650F814606D0B8F158
:1006F000660F18D0B8F1670F70D131E00020B9F162
:10070000110F009001DB112301E009F101030AAA96
:1007100001A90CA8FFF7E2FEDDE90C70002609F143
:100720000105834647E001204B4600904FF000470B
:100730000AAA01A90CA8FFF7D1FEDDE90DB00C99BA
:100740005D46002610B909F101000D18B9EB05004E
:1007500003D4C0F1FF3609F10105A5EB09002BE038
:10076000B9F1010F01DA4FF001090020B9F1110FC1
:100770000090484601DD112300E003460AAA01A9C2
:100780000CA8FFF7ABFEDDE90C704D460026834652
:10079000207800070AD4AB4500DA5D4601A8012D98
:1007A00004DD411911F8011C302907D04F4502DA48
:1007B00017F1040F04DA012082460FE06D1EEEE708
:1007C000002F02DCED1B3E4403E0781CA84200DD54
:1007D0007D1CB81B00F1010A4FF00047207800078C
:1007E00003D4AA4501DB4FF0FF3A0021B7F1004FD7
:1007F0000DF143088DF8431024D002202B23002F45
:1008000001DA7F422D230A21021EA0F1010000DC43
:100810005FB197FBF1FC97FBF1F201FB1C7C1746E3
:100820000CF1300C08F801CDEEE7A8F101000370DF
:100830002188090501D5452100E06521A0F10108C5
:1008400000F8011C09980FA9A1EB0807FF1D00B1D2
:100850000120411901EBEA70A1693844081A401ED1
:10086000A0612078C00602D42046AFF3008009982A
:1008700028B1D4E901219047206A401C20622078E9
:10088000C00622D52046AFF300801EE0002E04DB18
:10089000B34502DD01A8805D00E03020D4E90121EC
:1008A0009047206A401C2062761CAAF101005FEA92
:1008B000000A0AD100F03EF8C0680168405CD4E943
:1008C00001219047206A401C2062281EA5F10105E5
:1008D000DCDC07E0D4E9012118F8010B9047206A1D
:1008E000401C2062381EA7F10107F3DC2046AFF35D
:1008F0000080032011B041E601694A1C02610878BA
:10090000704700B58FB0CDE901310021059105494F
:100910007944CDE9031011466846FFF7B5FC0FB0E6
:1009200000BD0000E5FFFFFF0A6802F8010B0A6046
:1009300070470000004870474806002030B5B0F10D
:100940000A024FEA900E71F100034EEA817EB0EB8D
:100950000E0061EB91014FEA101E4EEA017E10EB92
:100960000E0041EB11114FEA102E4EEA016E10EB12
:100970000E0041EB11214FEA104E4EEA014E10EBF2
:100980000E0041EB1141401841F100014FEAD00047
:1009900040EA41704FEAD10110EB80054FEA810433
:1009A00044EA907444EB01046D1944EB0404521BB7
:1009B000A3414FF0000348BF0A3200D530BD401CB0
:1009C00041F1000130BD00002DE9F0411F46044611
:1009D00003260168072A01F4006004DB08B116A5AC
:1009E00005E016A503E008B115A500E015A521F066
:1009F00010002060A069C01EA0610FB1401EA06160
:100A00002046AFF300804FB1D4E90121384690472A
:100A1000206A401C2062C01C206206E0206AFAE7BF
:100A2000D4E9012115F8010B9047761EF8D2204633
:100A3000AFF30080BDE8F0814E414E006E616E0064
:100A4000494E4600696E66002DE9F047814616461C
:100A50008AB0354878440DC88DE80D003248784496
:100A6000801C03AC0DC884E80D0041F69B3008449F
:100A7000372190FBF1F290FBF1F5A5F1800501FB28
:100A800012041B3C02D56442012000E00020DFF884
:100A900098A080460027FA44AAF1BE0A0EE0E007BB
:100AA0000AD03246684607EB470101230AEB810171
:100AB00000F046FB8DE8070064107F1C002CEED18F
:100AC000194F7F44AE3F19E0E80715D007EB04103B
:100AD0000DF1180A90E80E008AE80E00C068F04296
:100AE00001D1981908903246012306A903A800F005
:100AF00027FB03AB83E807006D10641C002DE3D1D6
:100B00004FF0010332466946B8F1000F03A802D046
:100B100000F001FB01E000F013FBC9E90001C9F896
:100B200008200AB0BDE8F087C447000000487047BD
:100B3000280600207546FFF7F9FFAE460500694616
:100B4000534620F00700854618B020B5FFF73AFB62
:100B5000BDE820404FF000064FF000074FF00008BE
:100B60004FF0000B21F00701AC46ACE8C009ACE83F
:100B7000C009ACE8C009ACE8C0098D46704710B5A3
:100B80000446AFF300802046BDE81040FFF705BBE8
:100B90004FF0013C50F8042B51F8043B9A4221D10C
:100BA000A2EB0C03934313EACC1317D150F8042B98
:100BB00051F8043B9A4215D1A2EB0C03934313EA7C
:100BC000CC130BD150F8042B51F8043B9A4209D1B5
:100BD000A2EB0C03934313EACC13DBD04FF00000DD
:100BE000704700BFD01A01BAB1FA81F101F01801C3
:100BF00022FA01F0CB40C1F12001DBB2C0B2C01A31
:100C00002CFA01F3D11A914311EAC311E6D17047CE
:100C100001491820ABBEFEE72600020070475FEADC
:100C2000400C08BF91F0000F4FEA8C234FEAC1221D
:100C300043EA51514FEA1C5018BF00F5F0404FEA0B
:100C4000300018BF41F000415FEA6C5C00F0298081
:100C5000BCF1FF3F08BF40F080407047130C06BF57
:100C600012044FF0100C4FF0000C130E04BF1202D0
:100C70000CF1080C130F04BF12010CF1040C930FBC
:100C800004BF92000CF1020CD30F04BF52000CF110
:100C9000010C11464FF00002A0F11F00A0EB0C0068
:100CA000704711F0004F08BF704731F000413FF42A
:100CB000D5AF0B0C06BF09044FF0100C4FF0000C21
:100CC0000B0E04BF09020CF1080C0B0F04BF090145
:100CD0000CF1040C8B0F04BF89000CF1020CCB0F3C
:100CE00004BF49000CF1010CCCF12003A0EB0C0077
:100CF00022FA03F302FA0CF241EA030100F10100C7
:100D0000704720F07F4C80EA030023F07F47ACEB74
:100D1000070303F57C5300F0004003F1FF032DE9C6
:100D200080494FEA154B09B44FEA144325EA0B4EAC
:100D300024EA03480FF2042606EB132749083E78FD
:100D40005FEA320203FB0667C7F5000707FB06F6FA
:100D50004FEA54374FEAD64606F1020607FB066C07
:100D6000CCF1005C4FEA1C472CEA074C07FB06F469
:100D70000CFB06F504EB15464FEA961634BF00202F
:100D80004FF000404FEAD13706FB07FC4FEA1C4CFE
:100D90000CFB0BF7D21B03FB0CF761EB07010CFB01
:100DA0000EF7B0EB074072EB17420CFB08F734BFAD
:100DB000A2EB0742B2EB074261EB17414FEA0C444A
:100DC0004FEA910706FB07FC4FEA1C4C0CFB0BF7A4
:100DD000B0EBC74072EB573203FB0CF734BFA2EB0A
:100DE000C742B2EBC74261EB57310CFB0EF7B0EBD9
:100DF000C70072EB57720CFB08F734BFA2EBC702B7
:100E0000B2EBC70261EB5771039F4FEA816141EA80
:100E1000921104EBCC044FEAD1374FEA826206FB11
:100E200007FC42EA90124FEA80604FEA1C4C0CFB30
:100E30000BF7D21B03FB0CF761EB07010CFB0EF762
:100E4000B0EB074072EB17420CFB08F734BFA2EB84
:100E50000742B2EB074261EB17414FEA8C554FEA6C
:100E6000910704EB9C2406FB07FC4FEA1C4C0CFB8F
:100E70000BF7B0EBC74072EB573203FB0CF734BFF4
:100E8000A2EBC742B2EBC74261EB57310CFB0EF746
:100E9000B0EBC70072EB57720CFB08F734BFA2EB44
:100EA000C702B2EBC70261EB577115EB4C254FEA55
:100EB000816141EA92114FEA82624FEAD13742EAF8
:100EC000901206FB07FC44F100044FEA80604FEAF1
:100ED0001C4C0CFB0BF7D21B03FB0CF761EB07015F
:100EE0000CFB0EF7B0EB074072EB17420CFB08F758
:100EF00034BFA2EB0742B2EB074261EB174115EB9F
:100F00001C154FEA813141EA92414FEA823242EAAE
:100F100090424FEA80304FEA0C7644F1000448EAF0
:100F200003434EEA0B484FF0000EB2EB080C71EB96
:100F3000030724BF624639464EEB0E0E4FF0000BFE
:100F40000018524149414BEB0B0BB2EB080C71EB13
:100F500003077BF1000B24BF624639464EEB0E0EB1
:100F60004FF0000B0018524149414BEB0B0BB2EB19
:100F7000080C71EB03077BF1000B24BF6246394676
:100F80004EEB0E0E51EA020718BF46F0010616EBB3
:100F90000E7655F1000254F1000103D5BDE8890138
:100FA000BDE80088BDE88901BDE80048B619524196
:100FB00041EB0101A3F10103704780807F7E7D7CBE
:100FC0007B7A7978777676757473727171706F6EDB
:100FD0006E6D6C6C6B6A6A69686867666665646486
:100FE000636362616160605F5F5E5E5D5D5C5C5B10
:100FF0005B5A5A595958585757565655555554547F
:10100000535352525251515050504F4F4F4E4E4DDC
:101010004D4D4C4C4C4B4B4B4A4A4A494949484828
:101020004847474747464646454545444444444368
:1010300043434342424242414141002B9C4630D40B
:1010400077002BD01CB54FEA370703B44FF01000E0
:101050004FF01001BAF1000F06D0BCF1000FDCBF59
:1010600040F0080040F008014FF000000FBCBDE860
:1010700010400BF1010BBBF1010F08BF5FEA17072E
:1010800022BF12F1010211F101014FF0004143F1C1
:10109000000300F0004043EA00007047F9D357080E
:1010A000D0E746EA064613F1400F4FEA16461FDD29
:1010B00013F1200FDFBF16430A46002120335B42A5
:1010C000BED0C3F1200746EA064602FA07F74FEA08
:1010D000164646EA0706C3F1200722FA03F201FA90
:1010E00007F721FA03F14FF0000342EA0702A7E7EE
:1010F00046EA020646EA06464FEA164646EA010670
:10110000BCBF46EA0646360C4FF000034FF0000223
:101110004FF0000194E72DE9804C9A46934670B455
:1011200091E8380007C831EA400C48BF34EA430C64
:1011300003D5FFF7E6FDFFF780FFF0BCBDE8008CAC
:101140002DE9804C9A46934670B491E8380007C860
:1011500010F0804F08BF13F0804F03D100F005F866
:10116000FFF76BFFF0BCBDE8008C20F07F4780EA02
:10117000030023F07F4C07EB0C03A3F57C5300F036
:101180000040A3F1FE0392F0000F00F0B38095F051
:10119000000F00F077802DE901494FEA11404FEA36
:1011A000144621EA004800FB06FC24EA064708FB37
:1011B00006F607FB08F800FB07F718EB06484CEBB0
:1011C000164C4FEA124B18EB07484FEA15464CEB0A
:1011D000174022EA0B4E0BFB06FC25EA06470EFBE6
:1011E00006F607FB0EFE0BFB07F71EEB064E4CEB5D
:1011F000164C4FF000061EEB074E4CEB174B18EB4E
:101200000B0840F1000018EB0E0B58EB000840F102
:1012100000008F1A4FF000013CBFC943661B14BF8A
:10122000B5EB040C00213CBFC943F61B4FEA174441
:101230004EEA8E0E27EA04454FEA1C4704FB07627C
:101240002CEA074C05FB07F70CFB05F604FB0CFC2E
:1012500016EB074642EB174216EB0C4642EB1C42DC
:101260001BEB060658EB0202414146EA9E0601D5F9
:10127000BDE80189B619524141EB0101A3F1010317
:10128000BDE801894FEA14454FEA114724EA0546B3
:1012900021EA074C05FB07F406FB07F70CFB06F1F8
:1012A00005FB0CFC11EB074144EB17444FEA1247D6
:1012B00011EB0C4144EB1C4422EA074C05FB07F2FE
:1012C00006FB07F70CFB06F605FB0CFC16EB0746C6
:1012D00042EB174216EB0C4642EB1C456A1854F1E0
:1012E000000148BF7047B619524141EB0101A3F11B
:1012F0000103704795F0000F37D04FEA11424FEAD3
:10130000144721EA024624EA074C02FB07F106FBD8
:1013100007F70CFB06F402FB0CFC14EB074441EB53
:1013200017414FEA154714EB0C4441EB1C4125EAE9
:10133000074C02FB07F506FB07F70CFB06F602FB62
:101340000CFC16EB074645EB174516EB0C4645EB38
:101350001C42121951F1000148BF7047B6195241A1
:1013600041EB0101A3F1010370474FEA14454FEA35
:10137000114724EA054621EA074C05FB07F106FB65
:1013800007F70CFB06F24FF0000605FB0CFC12EB16
:10139000074241EB174112EB0C4251EB1C4148BF95
:1013A0007047921841EB0101A3F10103704700005F
:1013B00070B5044600688168C943C90717D18168C0
:1013C00021F00101816000F087FC05460AE000BFC2
:1013D00000F082FC401B022804D920688068C043CA
:1013E000C00706D020688068C043C007F0D0002046
:1013F00070BDA06A40F01000A062E06A40F00100F9
:10140000E062012070BD0000F8B500260446009699
:1014100000688168C943C9072DD0816841F0010186
:101420008160164816490068B0FBF1F000E0401EEC
:1014300000900028FBD100F04FFC054616E000BFED
:1014400000F04AFC401B022810D920688068C04385
:10145000C0070BD0A06A40F01000A062E06A40F024
:101460000100E06284F824600120F8BD20688068F3
:10147000C043C007E4D10020F8BD00000C000020EC
:1014800040420F00FEE7704772B6FEE7F8B5002550
:101490000446009590F82400012808D0012084F823
:1014A00024002046FFF784FF060002D053E002200C
:1014B000F8BDA06A20F4885040F00200A06202202B
:1014C00000F09AFD26490968B1FBF0F0400000E009
:1014D000401E00900028FBD12046FFF795FF2068B2
:1014E000816841F00801816000F0F6FB074608E0E2
:1014F00000F0F2FBC01B0A2803D9206880680007AF
:1015000015D4206880680007F2D42068816841F013
:101510000401816000F0E0FB074612E000F0DCFB14
:10152000C01B0A280DD920688068400709D5A06A29
:1015300020F0020040F01000A06284F82450012046
:10154000F8BD206880684007E8D4A06A20F0020057
:1015500040F00100A06284F824503046F8BD00003D
:101560000C000020F8B50024009490F824202546B3
:10157000012A12D0012280F824204A681F23072A5A
:101580000DD20668776B521E02EB820293409F4396
:101590000B6893401F43776319E00220F8BD06688B
:1015A0000D2A0AD2376BD21F02EB820293409F436F
:1015B0000B6893401F43376309E0F76A0D3A02EB6B
:1015C000820293409F430B6893401F43F7620A686F
:1015D000072306680A2A0AD3F7680A3A02EB42028E
:1015E00093409F438B6893401F43F76008E037693F
:1015F00002EB420293409F438B6893401F43376145
:101600000A68102A01D0112A20D1124B02689A428E
:1016100017D193681B0219D4936843F400039360B5
:101620000968102912D10C490C4A0968B1FBF2F182
:1016300001EB8101490000E0491E00910029FBD126
:1016400004E0816A41F020018162012480F8245085
:101650002046F8BD002401400C00002040420F004D
:101660000068C06C704700002DE9F0414FF00007A2
:1016700004003D467ED0A06A002628B9E66284F8C0
:101680002460204600F07EF82046FFF791FEA16A14
:10169000C90600D420B1A06A40F01000A06269E041
:1016A000A16A21F4885141F00201A1626268E169F6
:1016B000237B0A4347EA43010A43A1684FF480773A
:1016C000B94209D0012907D05FF0000194F814C095
:1016D000BCF1010F02D00AE03946F7E7F3B1A36A83
:1016E00043F02003A362E36A43F00103E36223684B
:1016F000D3F804C02CF4694C4CEA010CC3F804C0C4
:1017000021688B68DFF870C003EA0C0313438B6019
:10171000A168B9420BD0012909D00CE0DFF85CC008
:10172000A3690CEB43330B4343F40061DFE7218AE9
:101730000D05A5F580152168CB6A23F470032B43B2
:10174000CB62216889680E4B1940914208D1E6624C
:10175000A16A21F0020141F00101A162BDE8F0811E
:10176000A06A20F0020040F01000A062E06A40F0A1
:101770000100E0620120F1E7FDF7E1FF00E0FFFF7B
:10178000FE0E1FFF00B585B000210091019102916E
:10179000039100680E49884218D10E48816941F4CE
:1017A00000718161816901F400710491816941F0E6
:1017B000040181618069694600F004000490012001
:1017C000009003200190044800F088F905B000BDA6
:1017D0000024014000100240000801402DE9F843B8
:1017E00000270D460446009700F076FA80462068F0
:1017F0008168C90508D5A06A40F02000A06284F87D
:1018000024700120BDE8F8834168C90503D4C06A8B
:1018100010F4700F2AD0022000F0EEFB3B4909685B
:10182000B1FBF0F62068036939490B424FEA6101C8
:101830004FEAA1121FD1C3684FEA611C13EA0C0FD3
:1018400019D103690B4225D1C068104222D114205E
:1018500023E0681C0AD02DB100F03EFAA0EB08008E
:10186000A84203D920680068800725D52068006851
:101870008007EED52DE003690B4202D1C168114209
:1018800006D0026923490A4206D1C068084203D142
:10189000542002E0292000E0FC204643009816E096
:1018A000681C11D02DB100F017FAA0EB0800A84277
:1018B0000AD90098B04207D2A06A40F00400A062A2
:1018C00084F8247003209DE70098401C0090B042EB
:1018D000E6D321686FF012000860A06A40F400703F
:1018E000A06220688068C0F3424007280CD1207BAA
:1018F00050B9A06A20F48070A062A06AC00403D42A
:10190000A06A40F00100A06200207BE70C000020EC
:10191000244992244992240070B5044690F824008A
:1019200001280DD0012084F824002046FFF76CFD2B
:1019300002004FF0000005D084F82400104670BD6E
:10194000022070BDA16A40F20123994341F48071E5
:10195000A1621F4D23681F49AB4218D10E6816F4CF
:10196000702F14D0A66A46F48016A6620E6876051B
:1019700005D5A66A26F4005646F48056A662A66AE5
:10198000F6040AD5E66A26F00606E66206E0A66ACE
:1019900026F48016A6625E68E9E7E06284F8240017
:1019A0006FF00200186020688368C3F34243072B7E
:1019B00005D1A84208D1096811F4702F04D08168BC
:1019C00041F480118160B9E7816841F4A001F9E731
:1019D000002801400424014010B590F82110002295
:1019E000022905D00421816380F82020012010BD48
:1019F00001680B6823F00E030B6001680B6823F08D
:101A000001030B6090F84030C46B012101FA03F32D
:101A1000636080F8211080F82020104610BD00007F
:101A200010B590F821100024022903D0042181630D
:101A300001243DE001680A6822F00E020A60016894
:101A40000A6822F001020A601A4A0168914201D133
:101A5000012121E0174A1432914201D110211BE0EB
:101A6000144A2832914201D1891515E0114A3C32BD
:101A7000914201D189140FE00E4A5032914202D1B5
:101A80004FF4803108E00B4A6432914202D14FF4A6
:101A9000801101E04FF08071064A083A516001213F
:101AA00080F82110002180F82010416B01B1884797
:101AB000204610BD0800024070B5044600F00CF945
:101AC0000546601C02D004480078044400F004F984
:101AD000401BA042FAD370BD000000202DE9F84F52
:101AE000DFF8B891002409F1040A0AF1040B234637
:101AF0000F270BF1040EC9E00125A5402A40AA4298
:101B00007DD1674ED1F804C0ACEB0608B44532D0A5
:101B100014DCBCF1030F3AD009DCBCF1000F2AD071
:101B2000BCF1010F1CD0BCF1020F31D11DE0BCF1A2
:101B3000110F17D0BCF1120F2AD119E0B8F5881F88
:101B400019D006DCB8F5803F15D0B8F5801F1FD13D
:101B500011E0B8F5001F0ED0B8F5041F18D10AE047
:101B6000CB6815E0CB681B1D12E0CB6808330FE093
:101B7000CB680C330CE08B682BB1012B4FF00803C2
:101B800003D0456104E0042302E0056100E0002386
:101B9000FF2A01D8064601E000F104064FEA840559
:101BA00001D9A5F12005D6F8008007FA05FC28EA3E
:101BB0000C0803FA05F548EA0508C6F800804D68E8
:101BC000ED0062D5374DAE6946F00106AE61AD69F4
:101BD00024F0030605F001050095334D06EB050CD6
:101BE000DCF80850A607360F07FA06F825EA0805BC
:101BF000DFF8B880404503D14FF0000817E044E01B
:101C0000DFF8AC80404502D14FF001080FE0DFF86B
:101C1000A480404502D14FF0020808E0DFF8988028
:101C2000404502D14FF0030801E04FF0040808FAE4
:101C300006F848EA0508CCF808804D68D9F8006035
:101C4000ED034D4601D5164300E096432E604D68E6
:101C5000DAF80060AD03554601D5164300E096431F
:101C60002E604D68DBF80060ED025D4601D516433D
:101C700000E096432E604D68DEF80060AD027546C8
:101C800001D5164300E096432E60641C0D682A4679
:101C9000E5407FF431AFBDE8F88F0000000401405B
:101CA0000000111000100240000001400008014037
:101CB000000C01400010014000140140C26821EAFC
:101CC00002030A4043EA0241016170470AB101611F
:101CD00070470904FBE70000014880687047000076
:101CE0000000002070B5040025D094F83D000025C8
:101CF00020B984F83C50204600F0B8F8242084F83D
:101D00003D002068016821F0010101602068016840
:101D100041F4004101602068016821F40041016044
:101D200000F0DAFA4D4A6168914201D84C4900E06E
:101D30004C49884201D2012070BD4B492368B0FB59
:101D4000F1F15E6826F03F060E435E6063689342E1
:101D500006D94FF4967359434FF47A73B1FBF3F1FC
:101D60002368491C1E6A26F03F06314319626168E8
:101D7000914210D84900401EB0FBF1F2521CC2F350
:101D80000B02042A01D2042022E0B0FBF1F0401C37
:101D9000C0F30B001CE0A268F2B301EBC10303EB3C
:101DA0000116431EB3FBF6F35B1C43F480431B0593
:101DB00049D092B301EBC10202EB0111401EB0FB0E
:101DC000F1F0401CC0F30B0040F4804040F40040B0
:101DD0002168CA694CF6FF739A431043C861D4E97D
:101DE000071001432068026822F0C002114301601D
:101DF000D4E9030101432068826848F2FF339A4323
:101E000011438160D4E9050108432168CA6822F0C2
:101E1000FF021043C86001E00EE016E02068016890
:101E200041F0010101602564202084F83D00256314
:101E300084F83E50002070BD01EB4106431EB3FB09
:101E4000F6F35B1CB3E70120C2E701EB4101401E42
:101E5000B0FBF1F0401CC0F30B00B7E7A086010017
:101E600080841E0000093D0040420F0010B586B07E
:101E70000021009101910291039100680F4988426D
:101E80001AD10F4CA06940F00800A061A069694612
:101E900000F008000490C020009012200190032060
:101EA00003900848FFF71AFEE06940F40010E06173
:101EB000E06900F40010049006B010BD005400402A
:101EC00000100240000C0140024881680278114471
:101ED0008160704700000020074810B5016841F09C
:101EE00010010160032000F075F80F2000F006F8E3
:101EF00000F024F8002010BD0020024070B50D4D08
:101F000004464FF47A712878B1FBF0F00A49096869
:101F1000B1FBF0F000F001FD48B9102C07D200220F
:101F20002146501E00F036F800206C6070BD012084
:101F300070BD0000000000200C0000200C4808B517
:101F4000816941F001018161816901F00101009124
:101F5000C16941F08051C161C06900F080500090BA
:101F60000448416821F0E06141F00071416008BD22
:101F70000010024000000140002809DB00F01F02B1
:101F8000012191404009800000F1E020C0F80011DB
:101F900070470000F0B40E4B1B680C46C3F30223DD
:101FA000C3F10705042D00D90425191D072901D205
:101FB000002300E0DB1E012606FA05F1491E214040
:101FC00099409E40761E16403143F0BC01F063BA42
:101FD0000CED00E0064900F0070208684FF6FF0329
:101FE000184040EA0220034A10430860704700008E
:101FF0000CED00E00000FA0510B529A401461DCC47
:1020000086B08DE81D002AA02A4C006804900020AC
:10201000012923D002293AD010291DD161682268F4
:10202000D20119D5C1F38342C9031DF8020009D5B5
:10203000616804AAC1F34041515C1F4AB2FBF1F14F
:10204000484301E01D4948436168490204D4400007
:102050005FF00301B0FBF1F006B010BD226AC2F3DD
:102060000121012903D1920701D5C803F4E7022910
:1020700005D1626A920702D549F64040ECE7032990
:10208000EAD121688903E7D54FF22440E4E700F064
:1020900033F96168C1F38131491C4900DAE7000076
:1020A00002030405060708090A0B0C0D0E0F101099
:1020B000010200000010024000127A0000093D00F9
:1020C0002DE9F84305460078354CC00754D0E06947
:1020D0000026C00008D4E06940F08050E061E0696B
:1020E000012600F0805000902E480168C90512D4E6
:1020F0000168804641F480710160FFF7EDFD0746FD
:1021000005E000BFFFF7E8FDC01B642823D8D8F81E
:102110000000C005F6D5206A10F4407021D0A988CF
:1021200001F4407181421CD0206A1F49012220F431
:1021300040700A6000220A602062C00711D0FFF7D9
:10214000CBFD074641F2883808E000BFFFF7C4FD29
:10215000C11B414502D90320BDE8F883206A8007EE
:10216000F4D5206A696820F44070084320621EB1EB
:10217000E06920F08050E0612878800705D560682C
:10218000A96820F44040084360602878C00605D55F
:102190006068E96820F48000084360600020DBE7A5
:1021A0000010024000700040400442422DE9F04718
:1021B0000F46050061D0434E306800F00700B8427A
:1021C00009D2306820F0070038433060306800F0F2
:1021D0000700B84251D128683B4C810712D540070F
:1021E00003D5606840F4E06060602878000703D59C
:1021F000606840F4605060606068A96820F0F0009A
:10220000084360602878C00728D06868012810D08B
:102210002168022810D0890700292EDA616821F090
:10222000030101436160FFF757FD804641F28839A1
:102230000DE021688903EFE78901EDE7FFF74CFD29
:10224000A0EB0801494502D90320BDE8F08760688A
:10225000696800F00C00B0EB810FEFD1306800F03E
:102260000700B8420BD9306820F0070038433060CF
:10227000306800F00700B84201D00120E5E7287877
:10228000400705D56068E96820F4E06008436060B5
:102290002878000706D56068296920F4605040EA74
:1022A000C100606000F038F86168084AC1F30311AA
:1022B000515CC8400649086006480068FFF71EFEEA
:1022C0000020C2E70020024000100240C839000888
:1022D0000C000020040000200448054900684968FB
:1022E000044AC1F30221515CC84070470C00002031
:1022F00000100240D83900080448054900684968C0
:10230000044AC1F3C221515CC84070470C00002050
:1023100000100240D839000812A185B00FC98DE81D
:102320000F0014A0144A006804905168134801F08B
:102330000C03042B10D0082B0ED1C1F38343C90327
:102340001DF803000AD5516804AAC1F34041515C4D
:102350000A4A5043B0FBF1F005B0704708494843C2
:10236000FAE7000002030405060708090A0B0C0D32
:102370000E0F1010010200000010024000127A003F
:1023800000093D002DE9F84F040070D02078C04DC1
:10239000C00749D06868C0F38100012807D0686889
:1023A000C0F38100022809D16868C00306D52868F7
:1023B000800339D560680028E7D035E06068B0F563
:1023C000803F0BD010B1B0F5A02F11D0286820F4B9
:1023D00080302860286820F4802002E0286840F4DB
:1023E00080302860606890B1FFF776FC06460AE00E
:1023F000286840F480202860F0E700BFFFF76CFCFD
:10240000801B642873D828688003F7D50CE0FFF799
:1024100063FC064605E000BFFFF75EFC801B6428F6
:10242000F0D828688003F7D420789A4E80074FF0C0
:1024300001094FF0000839D5686810F00C0F07D07B
:102440006868C0F38100022809D16868C00306D417
:102450002868800714D52069012808D110E0206978
:10246000B0B1C6F80090FFF737FC074605E00AE177
:10247000FFF732FCC01B0228C4D828688007F7D5B4
:102480002868616920F0F80040EAC10028600DE08A
:10249000C6F80080FFF720FC074604E0FFF71CFCAD
:1024A000C01B022823D828688007F7D420780007AB
:1024B0002CD57948A169D9B1C0F80090FFF70CFC80
:1024C000074604E0FFF708FCC01B02280FD8686A23
:1024D0008007F7D571484FF4FA510068B0FBF1F06E
:1024E000009000BF0098411E0091FAD20EE080E0FB
:1024F000C0F80080FFF7F0FB074604E0FFF7ECFBB5
:10250000C01B022875D8686A8007F7D42078400776
:1025100060D5E8690027C00008D4E86940F0805021
:10252000E861E869012700F0805000905C4801688C
:10253000C90513D40168834641F480710160FFF737
:10254000CBFB824606E000BFFFF7C6FBA0EB0A000C
:1025500064284ED8DBF80000C005F5D5E0680128F6
:102560000AD008B1052813D0286A20F0010028629B
:10257000286A20F0040002E0286A40F00100286286
:10258000E06841F2883B98B1FFF7A6FB82460BE07A
:10259000286A40F004002862EEE700BFFFF79CFBCA
:1025A000A0EB0A0159455AD8286A8007F6D50CE0F5
:1025B000FFF792FB824605E0FFF78EFBA0EB0A01D6
:1025C00059454CD8286A8007F6D41FB1E86920F035
:1025D0008050E861E06988B36968C1F3810102292C
:1025E00044D00228C6F8608004D0FFF775FB04468B
:1025F00038E034E0FFF770FB074604E0FFF76CFBC0
:10260000C01B02282BD828688001F7D4206AB0F5B7
:10261000803F05D16868A16820F4003008436860F5
:10262000D4E908010843696821F47411084368601B
:10263000C6F86090FFF750FB044606E025E000BFB7
:10264000FFF74AFB001B022809D828688001F7D54C
:102650001BE000BFFFF740FB001B022802D903204C
:10266000BDE8F88F28688001F4D40EE00128F7D087
:102670006868226A00F48031914204D1616A00F4F2
:102680007010884201D00120EAE70020E8E700004E
:102690000010024000004242800442420C00002030
:1026A0000070004070B5040009D0606A002540B198
:1026B00025616561A56294F8510040B10CE00120EC
:1026C00070BD6068B0F5827FF4D0E561F2E784F810
:1026D0005050204600F040F8022084F85100206855
:1026E000016821F040010160A088218900F4827016
:1026F00001F404410843A18901F400610843217CED
:1027000001F002010843217D01F001010843218B02
:1027100001F400710843217F01F03801084394F867
:10272000201001F080010843218D01F4005108437D
:1027300021680860A069042101EA1040216848600E
:102740002068C16921F40061C1616565012084F8D8
:102750005100002070BD000000B585B0002100913F
:1027600001910291039100680F4988421AD10F48E4
:10277000816941F480518161816901F48051049142
:10278000816941F0040181618069694600F00400BB
:102790000490A020009002200190032003900448A0
:1027A000FFF79CF905B000BD003001400010024069
:1027B000000801402DE9F84F044690F8500000272A
:1027C0001D461646894601280DD04FF0010B84F8AE
:1027D00050B0FFF781FA804694F85100BA460128BC
:1027E00004D0022793E00220BDE8F88FB9F1000F72
:1027F00073D0002E71D0032084F85100C4F854A087
:10280000C4F83090A686E686C4F838A0A4F83CA0A8
:10281000A4F83EA0C4F844A0C4F840A0A068B0F555
:10282000004F09D12068016821F040010160206853
:10283000016841F48041016020680168490603D4C1
:10284000016841F040010160E068B0F5006F606828
:1028500003D030B3012E24D041E008B1012E1CD1A9
:10286000206B21680088C86006E0206881688907BD
:1028700009D5216B0988C160206B801C2063E08E24
:10288000401EE08609E0FFF727FAA0EB0800A84207
:1028900002D3681C01D031E07DB3E08E0028E4D182
:1028A00020E0206B21680078087306E020688168CA
:1028B000890709D5216B09780173206B401C2063BF
:1028C000E08E401EE0860AE0FFF706FAA0EB080063
:1028D000A84203D3681C02D010E017E06DB1E08E6F
:1028E0000028E3D142462946204600F002FC08B108
:1028F00020206065A06818B106E0FFE7032706E026
:102900002068C16880680090606D00B1012784F87C
:1029100051B084F850A0384666E710B5401EB0F1BB
:10292000807F01D3012010BD4FF0E02460610F21B2
:10293000601700F0B0FD0020A0610720206100209A
:1029400010BD704770470000F8B502680446106873
:10295000D168536910F00F0F4FF0000553D003F00A
:10296000010601F4907737435FD0C20705D0CA054E
:1029700003D5226C42F001022264420705D5DA0732
:1029800003D0226C42F002022264820705D5DA07E6
:1029900003D0226C42F004022264020707D501F042
:1029A0002002324303D0226C42F008022264226CDF
:1029B000002A34D0800604D5880602D5204600F0CF
:1029C00065FC20684069216CC0F38010090700D4C1
:1029D00030B3204600F042FC2068416949061BD50F
:1029E000416921F040014161A06BA8B158494163A0
:1029F000A06BFFF715F8002811D0A06B416B01B058
:102A0000BDE8F040084783060FD58B060DD520465C
:102A1000BDE8F84000F03ABC2046FFF793FFF8BD50
:102A20002046FFF78FFF2564F8BD266B2023012E7B
:102A300052D1C60650D5CE064ED5106850680090CB
:102A4000506940062AD5A16B086840680004000C54
:102A5000EAD0A68D8642E7D9E0858869202818D07B
:102A6000D06820F48070D0602068416921F00101B5
:102A700041612068416921F04001416184F83E30A4
:102A800025632068C16821F01001C160A06BFEF7CA
:102A9000A3FFA08DE18D401A81B219E0A08DE18DD8
:102AA000401A81B2E08D0028BED00029BCD0D06889
:102AB00020F49070D0602068426922F001024261E7
:102AC00084F83E3025632068C26822F01002C2609C
:102AD0002046FFF736FFF8BD05062BD50D0629D594
:102AE00094F83D002128F6D1A068B0F5805F01D1AF
:102AF0002069B0B1206A411C2162216800784860D9
:102B0000E08C401E0004000CE084E4D12068C16821
:102B100021F08001C1602068C16841F04001C160BE
:102B2000F8BD206A0088C0F308005060206A801C4D
:102B30002062E5E74006F3D54806F1D5D168204686
:102B400021F04001D16084F83D3000F0F6F8F8BD86
:102B50004D32000870B5040004D094F83D00002503
:102B600010B106E0012070BD84F83C50204600F012
:102B700023F8242084F83D002068C16821F4005126
:102B8000C160204600F0DEFB2068016921F490411D
:102B900001612068416921F02A0141612068C16812
:102BA00041F40051C1602564202084F83D0084F880
:102BB0003E00002070BD000070B586B00024009477
:102BC0000194029403942B4E03682B4902200322A4
:102BD0002A4DB34221D18B6943F480438B618B69C9
:102BE00003F4804304938B6943F004038B61896988
:102BF000039201F0040104910102CDE9001069463D
:102C00002846FEF76BFF2815CDE9000469462846E3
:102C10000294FEF763FF06B070BD194EB342FAD1BD
:102C2000CB6943F40033CB61CB6903F400330493E5
:102C30008B6943F004038B618969039201F00401FD
:102C400004910421CDE9001069462846FEF746FFAD
:102C50000820CDE90004694628460294FEF73EFFAD
:102C6000002211462620FFF795F92620FFF784F968
:102C7000D1E7000000380140001002400008014088
:102C800000440040704700002DE9F843044690F8E6
:102C90003D001F4616460D4620284CD1C5B1BEB199
:102CA00094F83C00012846D0012084F83C004FF005
:102CB0000008C4F84080212084F83D00FFF70CF89C
:102CC000A6848146E684A068B0F5805F03D004E066
:102CD0000120BDE8F883206928B12E465FF0000589
:102CE00084F83C800EE00026FAE78021204600F0C0
:102CF00085FBA0B9AEB116F8010B21684860E08CE5
:102D0000401EE084E08C4B464FF000020097002804
:102D1000EBD14FF04001204600F070FB30B10320B2
:102D2000D7E735F8020BC0F30800E6E7202084F867
:102D30003D000020CDE70220CBE77047FEE7000012
:102D40003EB5002411480094019402940E49846019
:102D5000016004730475012505614FF4602144602E
:102D6000C161FEF781FC08B1FEF78EFB07200094DD
:102D7000CDE9015069460548FEF7F4FB002801D073
:102D8000FEF782FB3EBD000000240140440000200D
:102D90002DE9F04186B00024244800940194029467
:102DA0000394816941F010018161816901F0100192
:102DB0000491816941F020018161816901F0200164
:102DC0000491816941F004018161816901F004018C
:102DD0000491816941F0080181618069012200F05C
:102DE0000800134F5503049029463846FEF76EFF3E
:102DF000DFF84080002252214046FEF767FF009531
:102E0000022601250396CDE9015469463846FEF7AE
:102E100065FE5220CDE90005CDE9024669464046EF
:102E2000FEF75CFE06B0BDE8F08100000010024035
:102E300000100140000801400D4810B50B49016029
:102E40000C49416000214FF480428160C0E90312C7
:102E500041618161C1610162FEF744FF002803D036
:102E6000BDE81040FEF710BB10BD0000005400404C
:102E700074000020A0860100104810B50E490160C2
:102E80004FF48271416000218160C1604FF4007293
:102E90000161C0E905120822C0E90721416281628F
:102EA0000A21C162FFF7FEFB002803D0BDE81040F5
:102EB000FEF7EABA10BD000000300140C800002053
:102EC0000C4810B50A4901604FF4E131416000211E
:102ED00081600C22C160C0E904128161C161FFF709
:102EE00039FE002803D0BDE81040FEF7CDBA10BD72
:102EF00000380140200100200C4810B50A4901604B
:102F00004FF4E1314160002181600C22C160C0E9D1
:102F100004128161C161FFF71DFE002803D0BDE8E6
:102F20001040FEF7B1BA10BD00440040640100201B
:102F3000FEE7FEE7CA0801F0070301219940044BB0
:102F400003EBC003985C61EA0000C04398547047EB
:102F5000A8010020CA0801F0070301219940034B92
:102F600003EBC000835C0B4383547047A80100202F
:102F700070B5114E002400BF04F1B000C0B20021B2
:102F800000F090F80021084600F08CF80021102095
:102F900000F088F85FF0000506EBC5000121005D38
:102FA00000F080F86D1CEDB2802DF5D3641CE4B206
:102FB000082CE1D370BD0000A80100202DE9FF4FCF
:102FC0001D460C468946580700D0012000EBD5006D
:102FD00069084843203A00F0FF0A02F0FF0B002680
:102FE00035E00C2D12D0102D14D0182D31D11A49E6
:102FF0000BEBCB0001EB80004FF00008875D214612
:10300000380600980AD5FFF7A5FF09E00BEB4B0047
:103010001249EFE7124901EB0B10EDE7FFF78AFFCA
:103020007806641C070EE4B2A4EB0900A84205D19F
:1030300000984C46401CC0B2009006E008F1010028
:1030400000F0FF08B8F1080FD9D3761CF6B2564548
:10305000C7D3BDE8FF8F000044440008E0390008F2
:10306000543E00082DE9F0411E46154688460446A8
:10307000C3F180070FE0334641462046FFF79EFF2D
:1030800004EB5600C4B2A74204DA08EB060002249F
:1030900000F0FF086D1C2A78A2F120005E28EAD912
:1030A000BDE8F08173B5104D6C4609B1012200E016
:1030B000002210212846FEF709FE00224021284662
:1030C000FEF704FEC823012221460848FFF772FBE1
:1030D000012240212846FEF7F9FD01221021284651
:1030E000FEF7F4FD7CBD000000080140C800002090
:1030F000704738B50B46009204460022802100F04C
:1031000009F8002804D0606D40F0200060650320BD
:1031100038BD00002DE9F8431E4691468846044616
:10312000089DFEF7D9FD401B351AFEF7D5FD074671
:1031300025480068C0F3CB30684338E0701C37D0B6
:10314000FEF7CAFDC01BA84203D215B1009860B3B8
:103150002CE02068416821F0E00141606068B0F532
:10316000827F0BD1A068B0F5004F02D0B0F5806F20
:1031700004D12068016821F040010160A06AB0F527
:10318000005F09D12068016821F4005101602068C6
:10319000016841F400510160012084F851000020D1
:1031A00084F850000320BDE8F8830025401E0090FD
:1031B0002068816838EA010004D000214945BDD16A
:1031C0000020F0E70121F9E70C0000207047FEF72E
:1031D0007BBE30B593B028216846FDF7FBF814217B
:1031E0000AA8FDF7F7F8002501200F951095119515
:1031F000010412958DE8230004904FF4E010CDE90E
:103200000810022407946846FFF7BCF808B172B6AC
:10321000FEE70AA90F2081E831004FF48060CDE974
:103220000D0502210AA8FEF7C1FF08B172B6FEE73C
:103230004FF4004011900F940FA8FEF741FF0028B3
:1032400001D072B6FEE713B030BD704710B5406ACA
:103250000021C185C184FFF775FB10BD0168CA68F4
:1032600022F49072CA6001684A6922F001024A6140
:10327000016B012904D10168CA6822F01002CA60FA
:10328000202180F83E1000210163704708B590F8B6
:103290003E10222901D0022008BD82684FF48053DD
:1032A0009A4201D1016921B1816A9A421BD04AB187
:1032B0000AE00268816A5268C2F308020A80816AE1
:1032C000891C08E0026972B10268526802F07F024C
:1032D0000A70816A491C8162C18D491E0904090C6A
:1032E000C18503D019E002685268F1E70168CA6835
:1032F00022F02002CA600168CA6822F48072CA60A3
:1033000001684A6922F001024A61202180F83E10DA
:10331000016B012903D0FFF7B5FC002008BD002197
:1033200001630168CA6822F01002CA6001680A6875
:10333000D20602D50A6849680091818DFFF701FB2A
:10334000EBE7000070B5044600680169E26821F40B
:103350004051114301612169A06808436169084334
:103360002168CA6841F20C639A430243CA6020682C
:103370004169A26921F44071114341611E492068ED
:10338000884202D1FEF7B8FF01E0FEF7A5FF00EB8F
:10339000C00101EB0012606864218000B2FBF0F311
:1033A000B3FBF1F36FF018067343B2FBF0F5B2FB19
:1033B000F0F605EB8305322303EB0515B5FBF1F5BC
:1033C000B6FBF1F605F0F00505EB0615B2FBF0F6DD
:1033D000B2FBF0F0B0FBF1F06FF01802504306EBD7
:1033E000800003EB0010B0FBF1F0216800F00F004B
:1033F0002844886070BD0000003801402DE9F0418C
:10340000984617460E460446069D1DE0681C1BD0D4
:103410002DB1FEF761FCA0EB0800A84214D920688A
:10342000C16821F4D071C1602068416921F00101B7
:103430004161202084F83D0084F83E00002084F89B
:103440003C000320BDE8F0812068006836EA0000F7
:1034500004D00020B842D9D00020F3E70120F9E7DA
:103460000148FFF771BA000064010020FEE749003F
:1034700050EAC12018BF04204A0D18BF40F00100D7
:1034800040F2FF72B2EB515F08BF40F0020001282A
:1034900008BF052070470907090E002804DB00F16A
:1034A000E02080F80014704700F00F0000F1E020E9
:1034B00080F8141D704730380A2801D20120704767
:1034C000002070471FB5FEF707FDFFF782FEFFF7EC
:1034D0005FFCFFF735FCFFF70FFDFFF7ADFCFFF7D3
:1034E000CBFCFFF7EDFC3A48FDF7D0FFDFF8E4A096
:1034F000DFF8E4B04FF066393548FEF70DFA0A21DF
:103500003348FEF76BF93248FEF7AAF880460246C8
:1035100032A13448FCF768FE1023324A20212820CB
:10352000FFF7A0FD404600F0C6F84A46534600F0BB
:10353000D5F800F08FF800F0CFF90C4605462A4682
:10354000234629A12748FCF74FFE1023254A194698
:103550003020FFF787FD2846214600225B4600F019
:10356000BDF80022224B00F0B9F800F073F800F02B
:10357000B3F90E4607463A4633461EA11948FCF7F2
:1035800033FE1023174A00213020FFF76BFDFFF7B1
:10359000EFFC31463E460F46284621468DE8C300E3
:1035A000424617A10F48FCF71FFE0E48FCF7F3FE3A
:1035B00082B24FF47A730B491948FFF765FB642018
:1035C000FEF77AFA4FF400511648FEF777FB93E7BF
:1035D0004400002066664A3F000059403A256420B6
:1035E00000000000100000203A252E326656200010
:1035F000000004403A252E664C757820000000003B
:103600004144433A25640AB5E7D1B93A252E3266DA
:10361000560AB9E2D5D53A252E32664C75780000A7
:10362000640100200010014010B500290AD008787C
:10363000002807D005487844FDF7AAFA002801D0F1
:10364000002010BD0248784410BD00001E1C000080
:10365000161C000021F00042A2F16052B2F5801F5A
:1036600001F0004328BFD2F17F6C0BD95FEA001C48
:1036700043EAC20242EB507018BF704728BF20F0E7
:1036800001007047B2F5801FBCBF184670474FEA73
:10369000410C1CF5001F02D2084600F08EB970B52F
:1036A00000F0C6F800000089FFF7F6BF4FF00040B9
:1036B000A0F580007047B0FA80F310FA03F10AD049
:1036C000C3F11D0303F580634FEA41504FEA0352F3
:1036D00002EBD12170474FF000007047DFF848C17E
:1036E00070B51CEA111E1EBF1CEA13159EEA0C0FD2
:1036F00095EA0C0F00F06F8081EA030423EA4C1373
:103700004EEAD47E21EA4C1141F4801143F4801337
:10371000AE44A1FB024CA0FB0365AEF17F7E3619DF
:1037200055EB0C05A1FB034C4CF10003A0FB021C64
:1037300016EB0C06654153F10003094218BF46F031
:10374000010613F4007F0BD14FEA03314FEA053035
:10375000340341EA155140EA16506FF003020AE0C3
:103760004FEAC3214FEAC520F40241EA555140EA2D
:1037700056506FF0020202EB2E4201EB025585EA31
:10378000CE710AD05FEA440C18BF24F0004450F117
:10379000000041F1000120EAD47040F2FE7C624555
:1037A00000D270BDA84214BF4FF080444FF0404497
:1037B000002E08BF0024BEF1806FA8BFA1F1C04158
:1037C000BDE8704080F282804FF0000001F1C041FE
:1037D00001F0004170479EEA0C0F0CEA131518BF68
:1037E00095EA0C0F06D04FF0000081EA030E0EF0B0
:1037F000004170BD00F01CF88900013E00F007B8E0
:1038000000F009B84FEA430C5FEA5C5C08D081EA3B
:10381000030100F05BB84FEA410C5FEA5C5CF6D153
:103820004FF00000014970470000FF070000F87FDB
:103830000EF1020E2EF0030E5EF8046B364205D434
:10384000012A43EB030515F5001F12D8012841EBAF
:10385000010C1CF5001F0CD80ED14FEAD17C15F5D8
:10386000001F0CEB4C0C0CF1020C08BF4CEBD37C92
:1038700004E04FF0080C01E04FEAD37C0CEB4C0560
:1038800026FA05F606F00706B6F1040C06D20EEB92
:10389000860CBDE870404CF0010C6047DFE80CF08E
:1038A000090B02024FF000414FF00000A1F500218A
:1038B00070BD19461046012851EB010418BFD4F51C
:1038C000001484BF002001F0004170BD0808A0F57D
:1038D00000114FEA3101704743004FEAD30C4FEA21
:1038E0003C0C43401FBF40070CF1605113F0FE4FEA
:1038F00070471CF0006F03D100200CF000417047AE
:103900000CF0004343EA507010B540EACC0000F0E0
:103910000EF800BF000000924FEA0001FFF7D6BF8B
:103920004FF000414FF00000A1F5002170470EF16B
:10393000020E2EF0030E5EF8044B244204D44FEA2C
:103940004102B2F17F4F11D84FEA4003B3F17F4FEC
:103950000CD80ED14FEAD07CB2F17F4F0CEB4C0C5F
:103960000CF1020C08BF4CEBD17C04E04FF0080CCA
:1039700001E04FEAD17C0CEB4C0324FA03F404F091
:103980000704B4F1040C06D20EEB840CBDE8104021
:103990004CF0010C6047DFE80CF0070802024FF022
:1039A0000040A0F5800010BD0846420018BFD2F1CB
:1039B000807288BF00F0004010BDFF2141EAD05066
:1039C000C0057047FCF762BE000000000000000068
:1039D00001020304060708090000000001020304B5
:1039E00000000000000000000000000000000000D7
:1039F0003F400000000000000000300040003000A8
:103A00004000000009000BC03D000BC03D00090054
:103A100018C024407FE0224031800000180024C0FC
:103A20001B000D803240018003801C4027401C8019
:103A3000074000401000600000000000000000008F
:103A40000000000000001F802040402000004020B7
:103A500020401F8000000000090006001F800600B3
:103A600009000000040004003F800400040000007E
:103A700000100060000000000000000004000400CE
:103A800004000400040000000000004000000000EA
:103A900000000000002001C00600380040000000C7
:103AA0001F802040204020401F8000000000104068
:103AB0003FC000400000000018C0214022402440C8
:103AC0001840000010802040244024401B8000004B
:103AD00002000D0011003FC0014000003C80244066
:103AE00024402440238000001F8024402440344090
:103AF000038000003000200027C0380020000000B4
:103B00001B802440244024401B8000001C0022C055
:103B1000224022401F8000000000000008400000FA
:103B20000000000000000000046000000000000031
:103B3000000004000A001100208040400900090034
:103B40000900090009000000000040402080110029
:103B50000A00040018002000234024001800000080
:103B60001F802040274029401F400000004007C020
:103B700039000F0001C0004020403FC024402440D5
:103B80001B8000001F80204020402040308000002B
:103B900020403FC0204020401F80000020403FC008
:103BA00024402E4030C0000020403FC024402E0062
:103BB000300000000F0010802040224033800200BF
:103BC00020403FC0040004003FC02040204020406F
:103BD0003FC02040204000000060202020203FC047
:103BE0002000200020403FC024400B0030C0204077
:103BF00020403FC020400040004000C03FC03C008B
:103C000003C03C003FC0000020403FC00C402300E8
:103C10003FC020001F802040204020401F80000027
:103C200020403FC024402400180000001F80214095
:103C3000214020E01FA0000020403FC0244026007B
:103C400019C0004018C024402440224031800000A8
:103C5000300020403FC020403000000020003F8066
:103C6000004000403F80200020003E0001C00700CF
:103C700038002000380007C03C0007C038000000B2
:103C8000204039C0060039C02040000020003840E4
:103C900007C0384020000000304021C02640384096
:103CA00020C00000000000007FE040204020000015
:103CB000000070000C000380004000000000402065
:103CC00040207FE0000000000000200040002000B5
:103CD0000000000000100010001000100010001084
:103CE0000000000040000000000000000000028012
:103CF0000540054003C0004020003FC00440044090
:103D000003800000000003800440044006400000DF
:103D100000000380044024403FC0004000000380B6
:103D20000540054003400000000004401FC024403F
:103D300024402000000002E00550055006500420F9
:103D400020403FC00440040003C000400000044085
:103D500027C000400000000000100010041027E001
:103D60000000000020403FC00140070004C00440A4
:103D7000204020403FC000400040000007C0040039
:103D800007C0040003C00000044007C00440040052
:103D900003C0004000000380044004400380000092
:103DA000041007F00450044003800000000003806A
:103DB0000440045007F00010044007C00240040013
:103DC00004000000000006400540054004C000005B
:103DD000000004001F800440004000000400078031
:103DE0000040044007C000400400070004C00180F8
:103DF00006000400060001C0070001C00600000024
:103E0000044006C0010006C0044000000410071072
:103E100004E00180060004000000044005C00640E4
:103E2000044000000000000004007BE0402000008F
:103E3000000000000000FFF0000000000000402033
:103E40007BE00400000000004000800040002000F3
:103E50002000400000000000000000000000000002
:103E6000000000000000000000001FCC000C00005B
:103E70000000000000000800300060000800300072
:103E800060000000022003FC1E20022003FC1E2014
:103E90000220000000000E1811043FFF10840C786F
:103EA000000000000F0010840F3800C0077818844D
:103EB0000078000000780F8410C411240E9800E4EC
:103EC0000084000808006800700000000000000086
:103ED0000000000000000000000007E018182004A7
:103EE00040020000000040022004181807E0000013
:103EF000000000000240024001800FF001800240FB
:103F0000024000000080008000800FF800800080E8
:103F1000008000000001000D000E00000000000005
:103F20000000000000000080008000800080008011
:103F3000008000800000000C000C00000000000069
:103F4000000000000000000600180060018006006C
:103F500018002000000007F00808100410040808EA
:103F600007F000000000080408041FFC000400041F
:103F70000000000000000E0C1014102410441184E6
:103F80000E0C000000000C1810041104110412881B
:103F90000C700000000000E00320042408241FFC33
:103FA0000024000000001F981084110411041088E0
:103FB00010700000000007F0088811041104188830
:103FC0000070000000001C00100010FC13001C001A
:103FD0001000000000000E381144108410841144B9
:103FE0000E38000000000700088C104410440888B8
:103FF00007F00000000000000000030C030C0000AC
:1040000000000000000000000001010600000000A8
:104010000000000000000080014002200410080899
:1040200010040000022002200220022002200220B0
:1040300002200000000010040808041002200140C3
:104040000080000000000E001200100C106C1080A8
:104050000F00000003E00C1813E4142417C4082810
:1040600007D000000004003C03C41C40074000E4EB
:10407000001C000410041FFC1104110411040E881C
:104080000070000003E00C18100410041004100865
:104090001C10000010041FFC100410041004080879
:1040A00007F0000010041FFC1104110417C41004D1
:1040B0000818000010041FFC1104110017C01000A4
:1040C0000800000003E00C181004100410441C78D1
:1040D0000040000010041FFC108400800080108449
:1040E0001FFC10040000100410041FFC1004100436
:1040F0000000000000030001100110011FFE10006D
:104100001000000010041FFC110403801464181C2C
:104110001004000010041FFC10040004000400043C
:10412000000C000010041FFC1F0000FC1F001FFCFF
:104130001004000010041FFC0C04030000E0101821
:104140001FFC100007F008081004100410040808F1
:1041500007F0000010041FFC1084108010801080F5
:104160000F00000007F0081810241024101C080A83
:1041700007F2000010041FFC1104110011C01130DF
:104180000E0C000400000E1C110410841084104456
:104190001C3800001800100010041FFC1004100050
:1041A0001800000010001FF81004000400041004A0
:1041B0001FF8100010001E0011E0001C007013809A
:1041C0001C0010001FC0103C00E01F0000E0103C6D
:1041D0001FC000001004180C163401C001C01634B2
:1041E000180C100410001C00130400FC13041C0025
:1041F000100000000804101C1064108413041C0438
:10420000101800000000000000007FFE4002400285
:1042100040020000000030000C0003800060001C21
:104220000003000000004002400240027FFE000048
:10423000000000000000000020004000400040009E
:104240002000000000010001000100010001000148
:1042500000010001000040004000200000000000BC
:1042600000000000000000980124014401440144C2
:1042700000FC000410001FFC0088010401040088F9
:1042800000700000000000700088010401040104B7
:10429000008800000000007000880104010411087B
:1042A0001FFC0004000000F80144014401440144E3
:1042B00000C800000000010401040FFC11041104F7
:1042C00011001800000000D601290129012901C9A7
:1042D0000106000010041FFC00840100010001041D
:1042E00000FC000400000104190419FC000400048F
:1042F000000000000000000300010101190119FE87
:104300000000000010041FFC0024004001B4010C58
:10431000010400000000100410041FFC000400044D
:1043200000000000010401FC0104010001FC010483
:10433000010000FC010401FC0084010001000104F3
:1043400000FC0004000000F8010401040104010461
:1043500000F80000010101FF00850104010400884C
:1043600000700000000000700088010401040105D5
:1043700001FF00010104010401FC008401040100AB
:1043800001800000000000CC01240124012401244C
:104390000198000000000100010007F80104010479
:1043A00000000000010001F80004000400040108FE
:1043B00001FC0004010001800170000C001001608C
:1043C0000180010001F0010C003001C00030010C3F
:1043D00001F0010000000104018C00740170018CE7
:1043E00001040000010101810171000E001801604B
:1043F0000180010000000184010C013401440184AA
:10440000010C0000000000000000000001003EFC64
:10441000400240020000000000000000FFFF00001A
:10442000000000000000400240023EFC01000000CD
:10443000000000000000600080008000400040009C
:10444000200020000000000000000000000000002C
:10445000000000000000000000000000000000005C
:10446000000000000000000000000000000000004C
:10447000000000000000000F80380FFE380F803869
:10448000000000000000000000000000000000002C
:1044900000000100000600000C00003800003100A0
:1044A000000600000C000038000030000000000092
:1044B0000000000061800067F807F980006180005B
:1044C00061800061800061800067F807F980006109
:1044D0008000000000000000000001C0E003E0F0E8
:1044E0000630080418081FFFFE040E080787F003B3
:1044F00081E000000000000001F000060C00040450
:1045000008060C7001F9C0000E00003BE000EC183A
:10451000070808040C180003E00000000001E00098
:1045200007F003F818041C0804170807E1D003C0BB
:10453000E00023B0003C080020080000100000004C
:104540000000000100003100003200001C000000EB
:10455000000000000000000000000000000000005B
:10456000000000000000000000000000000000004B
:10457000000000007F0001FFC00780F00C00181051
:1045800000042000020000000000002000021000D3
:10459000040C00180780F001FFC0007F000000003D
:1045A000000000000000000000000000000000000B
:1045B0004200006600006600003C0000180003FF97
:1045C000C0001800003C00006600006600004200C9
:1045D00000000000080000080000080000080000BB
:1045E000080001FFC00008000008000008000008E3
:1045F000000008000000000000010000310000324F
:1046000000001C000000000000000000000000008E
:10461000000000000000000000000000080000088A
:104620000000080000080000080000080000080062
:104630000008000008000008000000000000000062
:1046400000000000380000380000380000000000C2
:10465000000000000000000000000000000000005A
:1046600000000000000600001C0000700001800037
:104670000E0000380000C0000700001C00003000E1
:1046800000000000000000007F8001FFE003807058
:1046900006001804000804000806001803807001D2
:1046A000FFE0007F8000000000000000000001002B
:1046B0000801000801000803FFF807FFF8000008E0
:1046C00000000800000800000000000000000001D9
:1046D000C03802C0580400980401180402180404E9
:1046E00018061C1803F81801E0F80000000000008C
:1046F00000000001C0E003C0F00400080408080442
:10470000080806180803F41801E7F00001E00000AB
:1047100000000000000000000300000D0000110078
:1047200000610000810803010807FFF80FFFF8008F
:1047300001080001080000000000000000E007FC84
:10474000D0060808061008061008061008061838D3
:10475000060FF00607C00000000000000000000087
:104760003F8001FFE00384300208180410080410A1
:1047700008041008071810030FF00007C00000001D
:1047800000000000000003C0000700000600000653
:1047900000F80607F806180006E00007000006000B
:1047A0000000000000000001E1E003F7F006341013
:1047B000041808041808040C08040C08061618034A
:1047C000F3F001C1E000000000000000F80003FC6D
:1047D0003003063804020804020804020804041026
:1047E0000308F001FFC0007F00000000000000008F
:1047F00000000000000000000000000070380070A1
:1048000038007038000000000000000000000000C8
:104810000000000000000000000000000000000098
:10482000301A00301C0000000000000000000000F2
:10483000000000000000000000000008000014005C
:10484000002200004100008080010040020020049E
:1048500000100800080000000000000021000021F6
:1048600000002100002100002100002100002100A3
:1048700000210000210000210000000000000000D5
:104880000000080008040010020020010040008021
:104890008000410000220000140000080000000019
:1048A00000000003C00004C0000400000800380835
:1048B0000F380808380810000C300007E00003C06B
:1048C00000000000000000003F8000FFE003807057
:1048D000020F1006708804C088048308047F8802D1
:1048E000C09003012000FE400000080000180001F5
:1048F000F8003E0801C20007020007E20000FE00C7
:10490000001FC80001F80000380000080400080774
:10491000FFF807FFF804080804080804080804085A
:104920000806180803F41801E7F00001E000000091
:10493000000000003F8001FFE003807002001804C7
:104940000008040008040008040010060020078086
:10495000C000000004000807FFF807FFF804000883
:10496000040008040008040018020010038070010D
:10497000FFE0007F8000000004000807FFF807FF49
:10498000F8040808040808040808040808043E0895
:104990000400080600180100600000000400080779
:1049A000FFF807FFF80408080408000408000408DA
:1049B00000043E0006000006000001800000000028
:1049C000000000003F8001FFE00380700600180433
:1049D00000080402080402080203F00783F0000242
:1049E0000000020004000807FFF807FFF8040808A9
:1049F000000800000800000800000800040808077C
:104A0000FFF807FFF80400080000000000000400A1
:104A10000804000804000807FFF807FFF80400086E
:104A2000040008040008000000000000000000006E
:104A3000000600000700000104000104000104005A
:104A40000307FFFE07FFFC04000004000004000051
:104A500004000807FFF807FFF8040C08001800001E
:104A60003E0004C7800503C80600F80400380400AF
:104A70001800000804000807FFF807FFF804000802
:104A800000000800000800000800000800000800FE
:104A9000001800006000000004000807FFF807800D
:104AA0000807FC00007FC00003F80007C000780082
:104AB00007800807FFF807FFF8040008040008074C
:104AC000FFF807000803C00000E000003800001EE7
:104AD000000007000001C00400F007FFF804000018
:104AE000000000007F8001FFE003807006001804D2
:104AF000000804000806001803003001FFE0007FF2
:104B00008000000004000807FFF807FFF80404080D
:104B1000040400040400040400040400060C000360
:104B2000F80001F000000000000000007F8001FF9D
:104B3000E00380700600880400880400C806003C7A
:104B400003003E01FFE6007F840000000400080728
:104B5000FFF807FFF8040808040800040C00040F1D
:104B600000040BC00610F003F03801E00800000854
:104B700000000001E0F803F03006301004180804CB
:104B80001808040C08040C080206180207F0078134
:104B9000E0000000018000060000040000040000A6
:104BA00004000807FFF807FFF804000804000004E9
:104BB000000006000001800004000007FFE007FF7E
:104BC000F0040018000008000008000008000008B9
:104BD00000000804001007FFE004000004000006C5
:104BE000000007E00007FE00041FE00001F80000DD
:104BF000380001E0043E0007C00006000004000089
:104C000004000007E00007FFC0041FF80007C0070A
:104C1000F80007FF80043FF80007C004F800070011
:104C20000004000000000004000806001807C07817
:104C300005F1C8003E00001F800463E80780F80605
:104C400000180400080000000400000600000780AF
:104C50000007E008047C08001FF80007F8001808A7
:104C600004E0080700000600000400000000000146
:104C700000080600380400F80403E8040F08047C68
:104C80000805F00807C008070018040060000000CD
:104C90000000000000000000000000000000003FD5
:104CA000FFFE20000220000220000220000220005F
:104CB00002000000000000000000080000070000E3
:104CC00000C0000038000006000001C000003000F5
:104CD000000E0000010000000000000000002000A5
:104CE000022000022000022000022000023FFFFEFE
:104CF00000000000000000000000000000000000B4
:104D0000000000000008000010000030000020003B
:104D1000003000001000000800000000000000004B
:104D2000000001000001000001000001000001007E
:104D3000000100000100000100000100000100006E
:104D40000100000100000000000000000020000041
:104D50002000001000001000000000000000000013
:104D600000000000000000000000000000F000193A
:104D7000F8001B1800220800260800240800241050
:104D8000003FF8001FF800000800001800000004B1
:104D9000000007FFF80FFFF00018180010080020AF
:104DA00008002008003018001FF0000FC0000000AD
:104DB0000000000007C0001FF000183000200800AD
:104DC0002008002008003C08001C100000600000C3
:104DD000000000000000000007C0001FF0003818AD
:104DE00000200800200800200804101007FFF80F1A
:104DF000FFF00000100000000000000000000007AD
:104E0000C0001FF000123000221800220800220803
:104E1000003208001E10000E2000000000000000FC
:104E2000200000200800200801FFF803FFF80620FA
:104E300008042008042008072000030000000000E8
:104E400000000000000E000E6E001FF30031B100E4
:104E500020B10020B1003191001F13002E1E002050
:104E60000E00300000000004000807FFF80FFFF8F4
:104E7000001008002000002000002008003FF8007B
:104E80001FF80000080000000000000000000020E3
:104E900008002008002008063FF8063FF800000838
:104EA00000000800000800000000000000000000F2
:104EB000000000000300000300200100200100208A
:104EC00003063FFE063FFC0000000000000000005B
:104ED00000000004000807FFF80FFFF80001880039
:104EE0000300002FC00038F8002038002008000020
:104EF0000800000000000000000004000804000892
:104F000004000807FFF80FFFF80000080000080081
:104F10000008000000000000002008003FF8003FEB
:104F2000F8001008002000003FF8003FF8001008CB
:104F3000002000003FF8003FF800000800000000DB
:104F40002008003FF8003FF8001008001000002083
:104F500000002008003FF8001FF8000008000000D3
:104F60000000000007C0000FF000183000300800FB
:104F70002008002008003008001830000FF000075B
:104F8000C0000000000000002001003FFF003FFFC4
:104F9000001011002009002008002008003038000F
:104FA0001FF0000FC00000000000000007C0001F3D
:104FB000F000381800200800200800200900101117
:104FC000001FFF003FFF000001000000002008005C
:104FD0002008002008003FF8003FF80008080010F3
:104FE0000800200800200000300000300000000011
:104FF000000000000000000C78001E1800330800BC
:1050000023080021080021880021980030F0003892
:1050100060000000000000002000002000002000D0
:1050200000FFF003FFF8002008002008002008001F
:105030000030000000000000000000002000003FE1
:10504000F0007FF8000018000008000008002010A1
:10505000003FF8007FF0000010000000000000009A
:105060002000003000003C00003F800023F00000E2
:1050700078000070002380003C0000300000200019
:10508000002000003C00003FE00023F80000E000AA
:105090002700003E00003FE00021F80001E0003E54
:1050A0000000200000000000200800200800383820
:1050B000003E680027800003C8002CF80038380044
:1050C0002018002008000000000000002000003030
:1050D00003003C01003F830023EC000070002380AC
:1050E000003C000020000020000000000000000044
:1050F00000000038080020380020F80023E8002FC6
:1051000088003E08003808002018000070000000E9
:10511000000000000000000000000000000000008F
:1051200008000014001FF7FC3000062000020000F9
:10513000000000000000000000000000000000006F
:10514000000000000000FFFFFF0000000000000062
:10515000000000000000000000000000000020002F
:10516000023000061FF7FC001400000800000000D9
:105170000000000000000000000000000000001817
:10518000000060000040000040000020000010000F
:10519000000800000400000400000C0000100000E3
:1051A00002400000000000A00000000005400000D8
:1051B000000000C8000000000C4000000000409CFF
:1051C00000000000194000000020BCBE00000000EC
:1051D00034400000BFC91B8E00000004B540000031
:1051E000504BCFD06607E2CF010000006C410000B9
:1051F0003E8251AADFEEA73401000000D942000030
:10520000DCB5A0E23A301F97FFFFFFFFB445000076
:10521000FD25A0C8E9A3C14FFFFFFFFFFF3F00002E
:105220000000008000000000FF3F00000000008040
:105230000000000070520008000000201000000074
:10524000280100088052000810000020780C00009F
:10525000440100081C00000043000000F8FFFFFFAD
:105260000C0000000E0000000F0000002E000000E7
:105270000100000010000000000000000024F40005
:04000005080000ED02
:00000001FF
